{
  "abi": [
    {
      "type": "constructor",
      "inputs": [
        {
          "name": "_airdrop_amount",
          "type": "uint256",
          "internalType": "uint256"
        },
        {
          "name": "circulating_supply",
          "type": "uint256",
          "internalType": "uint256"
        }
      ],
      "stateMutability": "nonpayable"
    },
    {
      "type": "function",
      "name": "airdrop",
      "inputs": [
        {
          "name": "proof",
          "type": "bytes",
          "internalType": "bytes"
        },
        {
          "name": "publicInputs",
          "type": "bytes32[]",
          "internalType": "bytes32[]"
        }
      ],
      "outputs": [],
      "stateMutability": "nonpayable"
    },
    {
      "type": "function",
      "name": "airdrop_amount",
      "inputs": [],
      "outputs": [
        {
          "name": "",
          "type": "uint256",
          "internalType": "uint256"
        }
      ],
      "stateMutability": "view"
    },
    {
      "type": "function",
      "name": "bonk_verifier",
      "inputs": [],
      "outputs": [
        {
          "name": "",
          "type": "address",
          "internalType": "contract HonkVerifier"
        }
      ],
      "stateMutability": "view"
    },
    {
      "type": "function",
      "name": "zkl",
      "inputs": [],
      "outputs": [
        {
          "name": "",
          "type": "address",
          "internalType": "contract ZKL"
        }
      ],
      "stateMutability": "view"
    }
  ],
  "bytecode": {
    "object": "0x608060405234801561000f575f5ffd5b5060405161635f38038061635f83398101604081905261002e91610130565b60405161003a90610116565b604051809103905ff080158015610053573d5f5f3e3d5ffd5b505f80546001600160a01b0319166001600160a01b039290921691909117905560405161007f90610123565b604051809103905ff080158015610098573d5f5f3e3d5ffd5b50600180546001600160a01b0319166001600160a01b0392831617905560028390555f546040516340c10f1960e01b8152306004820152602481018490529116906340c10f19906044015f604051808303815f87803b1580156100f9575f5ffd5b505af115801561010b573d5f5f3e3d5ffd5b505050505050610152565b610917806105a483390190565b6154a480610ebb83390190565b5f5f60408385031215610141575f5ffd5b505080516020909101519092909150565b6104458061015f5f395ff3fe608060405234801561000f575f5ffd5b506004361061004a575f3560e01c80630b32300c1461004e57806378cc43f11461006a5780638f059e951461007f578063add69689146100a9575b5f5ffd5b61005760025481565b6040519081526020015b60405180910390f35b61007d6100783660046102ac565b6100bc565b005b5f54610091906001600160a01b031681565b6040516001600160a01b039091168152602001610061565b600154610091906001600160a01b031681565b600154604051633a94343960e21b81526001600160a01b039091169063ea50d0e4906100ee908590859060040161036b565b602060405180830381865afa158015610109573d5f5f3e3d5ffd5b505050506040513d601f19601f8201168201806040525081019061012d91906103e9565b61016d5760405162461bcd60e51b815260206004820152600d60248201526c24b73b30b634b210383937b7b360991b604482015260640160405180910390fd5b5f5460025460405163a9059cbb60e01b815233600482015260248101919091526001600160a01b039091169063a9059cbb906044016020604051808303815f875af11580156101be573d5f5f3e3d5ffd5b505050506040513d601f19601f820116820180604052508101906101e291906103e9565b505050565b634e487b7160e01b5f52604160045260245ffd5b604051601f8201601f1916810167ffffffffffffffff81118282101715610224576102246101e7565b604052919050565b5f82601f83011261023b575f5ffd5b813567ffffffffffffffff811115610255576102556101e7565b8060051b610265602082016101fb565b91825260208185018101929081019086841115610280575f5ffd5b6020860192505b838310156102a2578235825260209283019290910190610287565b9695505050505050565b5f5f604083850312156102bd575f5ffd5b823567ffffffffffffffff8111156102d3575f5ffd5b8301601f810185136102e3575f5ffd5b803567ffffffffffffffff8111156102fd576102fd6101e7565b610310601f8201601f19166020016101fb565b818152866020838501011115610324575f5ffd5b816020840160208301375f60208383010152809450505050602083013567ffffffffffffffff811115610355575f5ffd5b6103618582860161022c565b9150509250929050565b604081525f83518060408401528060208601606085015e5f60608285010152601f19601f820116830190506060810160608483030160208501528085518083526080840191506020870193505f92505b808310156103de57835182526020820191506020840193506001830192506103bb565b509695505050505050565b5f602082840312156103f9575f5ffd5b81518015158114610408575f5ffd5b939250505056fea26469706673582212206199befea48c6a01fe0d76c9cb3ea230ed47e6b65544cc16db407f48350a3cb764736f6c634300081c0033608060405234801561000f575f5ffd5b50604051806040016040528060098152602001682d25a6102a37b5b2b760b91b815250604051806040016040528060038152602001621692d360ea1b815250816003908161005d919061010a565b50600461006a828261010a565b5050506101c4565b634e487b7160e01b5f52604160045260245ffd5b600181811c9082168061009a57607f821691505b6020821081036100b857634e487b7160e01b5f52602260045260245ffd5b50919050565b601f82111561010557805f5260205f20601f840160051c810160208510156100e35750805b601f840160051c820191505b81811015610102575f81556001016100ef565b50505b505050565b81516001600160401b0381111561012357610123610072565b610137816101318454610086565b846100be565b6020601f821160018114610169575f83156101525750848201515b5f19600385901b1c1916600184901b178455610102565b5f84815260208120601f198516915b828110156101985787850151825560209485019460019092019101610178565b50848210156101b557868401515f19600387901b60f8161c191681555b50505050600190811b01905550565b610746806101d15f395ff3fe608060405234801561000f575f5ffd5b506004361061009b575f3560e01c806340c10f191161006357806340c10f191461011457806370a082311461012957806395d89b4114610151578063a9059cbb14610159578063dd62ed3e1461016c575f5ffd5b806306fdde031461009f578063095ea7b3146100bd57806318160ddd146100e057806323b872dd146100f2578063313ce56714610105575b5f5ffd5b6100a76101a4565b6040516100b491906105b6565b60405180910390f35b6100d06100cb366004610606565b610234565b60405190151581526020016100b4565b6002545b6040519081526020016100b4565b6100d061010036600461062e565b61024d565b604051601281526020016100b4565b610127610122366004610606565b610270565b005b6100e4610137366004610668565b6001600160a01b03165f9081526020819052604090205490565b6100a761027e565b6100d0610167366004610606565b61028d565b6100e461017a366004610688565b6001600160a01b039182165f90815260016020908152604080832093909416825291909152205490565b6060600380546101b3906106b9565b80601f01602080910402602001604051908101604052809291908181526020018280546101df906106b9565b801561022a5780601f106102015761010080835404028352916020019161022a565b820191905f5260205f20905b81548152906001019060200180831161020d57829003601f168201915b5050505050905090565b5f3361024181858561029a565b60019150505b92915050565b5f3361025a8582856102ac565b61026585858561032d565b506001949350505050565b61027a828261038a565b5050565b6060600480546101b3906106b9565b5f3361024181858561032d565b6102a783838360016103be565b505050565b6001600160a01b038381165f908152600160209081526040808320938616835292905220545f19811015610327578181101561031957604051637dc7a0d960e11b81526001600160a01b038416600482015260248101829052604481018390526064015b60405180910390fd5b61032784848484035f6103be565b50505050565b6001600160a01b03831661035657604051634b637e8f60e11b81525f6004820152602401610310565b6001600160a01b03821661037f5760405163ec442f0560e01b81525f6004820152602401610310565b6102a7838383610490565b6001600160a01b0382166103b35760405163ec442f0560e01b81525f6004820152602401610310565b61027a5f8383610490565b6001600160a01b0384166103e75760405163e602df0560e01b81525f6004820152602401610310565b6001600160a01b03831661041057604051634a1406b160e11b81525f6004820152602401610310565b6001600160a01b038085165f908152600160209081526040808320938716835292905220829055801561032757826001600160a01b0316846001600160a01b03167f8c5be1e5ebec7d5bd14f71427d1e84f3dd0314c0f7b2291e5b200ac8c7c3b9258460405161048291815260200190565b60405180910390a350505050565b6001600160a01b0383166104ba578060025f8282546104af91906106f1565b9091555061052a9050565b6001600160a01b0383165f908152602081905260409020548181101561050c5760405163391434e360e21b81526001600160a01b03851660048201526024810182905260448101839052606401610310565b6001600160a01b0384165f9081526020819052604090209082900390555b6001600160a01b03821661054657600280548290039055610564565b6001600160a01b0382165f9081526020819052604090208054820190555b816001600160a01b0316836001600160a01b03167fddf252ad1be2c89b69c2b068fc378daa952ba7f163c4a11628f55a4df523b3ef836040516105a991815260200190565b60405180910390a3505050565b602081525f82518060208401528060208501604085015e5f604082850101526040601f19601f83011684010191505092915050565b80356001600160a01b0381168114610601575f5ffd5b919050565b5f5f60408385031215610617575f5ffd5b610620836105eb565b946020939093013593505050565b5f5f5f60608486031215610640575f5ffd5b610649846105eb565b9250610657602085016105eb565b929592945050506040919091013590565b5f60208284031215610678575f5ffd5b610681826105eb565b9392505050565b5f5f60408385031215610699575f5ffd5b6106a2836105eb565b91506106b0602084016105eb565b90509250929050565b600181811c908216806106cd57607f821691505b6020821081036106eb57634e487b7160e01b5f52602260045260245ffd5b50919050565b8082018082111561024757634e487b7160e01b5f52601160045260245ffdfea2646970667358221220d0c7028d472e71eaced59ad1a4e50b75046a408a4b114ee48fcba176bf1ea1c964736f6c634300081c003360e0604052348015600e575f5ffd5b50612000608052600d60a052600760c05260805160a05160c05161544d6100575f395f61057101525f818161061d01528181610bf60152610c9201525f61051a015261544d5ff3fe608060405234801561000f575f5ffd5b5060043610610029575f3560e01c8063ea50d0e41461002d575b5f5ffd5b61004061003b366004615056565b610054565b604051901515815260200160405180910390f35b5f6100626101b86020615132565b8414610081576040516376ba560560e11b815260040160405180910390fd5b5f61008a610198565b90505f61009787876101ad565b604083015190915084146100be5760405163fa06659360e01b815260040160405180910390fd5b5f6100d5828787865f015187604001516001610455565b90506101238686808060200260200160405190810160405280939291908181526020018383602002808284375f92019190915250508451606081015160809091015190925090506001610504565b815160a001525f6101348383610615565b905080610154576040516313f8744360e31b815260040160405180910390fd5b5f610160848685610716565b905080610180576040516352ec174560e11b815260040160405180910390fd5b81801561018a5750805b9a9950505050505050505050565b6101a061483a565b6101a8610f8a565b905090565b6101b5614bb8565b6101ca6101c560805f8587615149565b61186c565b81526101de6101c561010060808587615149565b60208201526101f66101c56101806101008587615149565b604082015261020e6101c56102006101808587615149565b60a08201526102266101c56102806102008587615149565b60c082015261023e6101c56103006102808587615149565b60608201526102566101c56103806103008587615149565b60e082015261026e6101c56104006103808587615149565b60808201526104005f5b601c811015610305575f5b60088110156102fc576102af86848761029d826020615170565b926102aa93929190615149565b611960565b84610100015183601c81106102c6576102c6615183565b602002015182600881106102dc576102dc615183565b6020020181815250506020836102f29190615170565b9250600101610283565b50600101610278565b505f5b60288110156103595761032285838661029d826020615170565b836101200151826028811061033957610339615183565b60200201818152505060208261034f9190615170565b9150600101610308565b505f5b6103686001601c615197565b8110156103be5761038d858386610380826080615170565b926101c593929190615149565b83610140015182601b81106103a4576103a4615183565b60200201526103b4608083615170565b915060010161035c565b505f5b601c811015610412576103db85838661029d826020615170565b83610160015182601c81106103f2576103f2615183565b6020020181815250506020826104089190615170565b91506001016103c1565b50610424848285610380826080615170565b610180830152610435816080615170565b9050610448848285610380826080615170565b6101a08301525092915050565b61045d614dab565b5f61046d888888888888876119bc565b908352905061047c8189611a3d565b6020840191909152905061048f81611bd8565b604084019190915290506104a38882611c39565b606084019190915290506104b78882611d0d565b608084019190915290506104cb8882611d98565b60a084019190915290506104df8882611f06565b60c084019190915290506104f38882611f78565b5060e0830152509695505050505050565b5f6001808261054d866105488961054361053e8a7f0000000000000000000000000000000000000000000000000000000000000000615170565b611fcf565b611fed565b612006565b90505f61056b876105668a61054361053e8b6001615170565b61201f565b90505f5b7f00000000000000000000000000000000000000000000000000000000000000008110156105fd575f6105ba8b83815181106105ad576105ad615183565b6020026020010151611fcf565b90506105ca866105438684612006565b95506105da856105438584612006565b94506105e6848b612006565b93506105f2838b61201f565b92505060010161056f565b50610608848461204e565b9998505050505050505050565b5f806001815b7f00000000000000000000000000000000000000000000000000000000000000008110156106ec575f86610100015182601c811061065b5761065b615183565b602002015190505f61066d828661205c565b90508061068d576040516313f8744360e31b815260040160405180910390fd5b5f876060015184601c81106106a4576106a4615183565b602002015190506106b58382612079565b95506106dc886040015185601c81106106d0576106d0615183565b60200201518683612228565b945050505080600101905061061b565b505f610706866101200151865f0151876020015185612253565b90508281145b9695505050505050565b5f61075d6040518061012001604052805f81526020015f81526020015f81526020015f81526020015f81526020015f81526020015f81526020015f81526020015f81525090565b5f61076b8460a001516122c1565b9050610775614e2f565b61077d614e4e565b60e086015161079c9061079790855f5b602002015161201f565b612326565b60a085015260e08601516107bb9061079790855f5b6020020151612006565b60c080860182905260a0860151908801516107da926105489190611fed565b845260a0860151610808906107ee90612326565b6105438660a001516105668a60c001518960c00151611fed565b6020850152600182526101808801516108209061238f565b81526001606085018190525f60808601525b602381116108d857610853610849865f01516123d9565b8660600151611fed565b83826046811061086557610865615183565b602002015260808501516101208a01516108a8919061054890610889600186615197565b6028811061089957610899615183565b60200201518860600151611fed565b8560800181815250506108c385606001518860800151611fed565b60608601526108d1816151aa565b9050610832565b505f6108e660236001615170565b90505b602881116109675761090161084986602001516123d9565b83826046811061091357610913615183565b602002015260808501516101208a0151610937919061054890610889600186615197565b85608001818152505061095285606001518860800151611fed565b6060860152610960816151aa565b90506108e9565b50606087015181600160200201526080870151816002602002015260a0870151816003602002015260c0870151816004602002015260e0870151816005602002015261010087015181600660200201526101208701518160076020020152610140870151816008602002015261016087015181600960200201526101a087015181600a602002015261018087015181600b60200201526101c087015181600c60200201526101e087015181600d602002015261020087015181600e602002015261022087015181600f60200201526102408701518160106020020152610260870151816011602002015261028087015181601260200201526102a087015181601360200201526102c087015181601460200201526102e08701518160156020020152610300870151816016602002015261032087015181601760200201526103408701518160186020020152610360870151816019602002015261038087015181601a60200201526103a087015181601b60200201528751610ae89061238f565b6103808201526020880151610afc9061238f565b6103a08201526040880151610b109061238f565b6103c08201526060880151610b249061238f565b6103e08201526080880151610b389061238f565b61040082015260e0880151610b4c9061238f565b61042082015260a0880151610b609061238f565b61044082015260c0880151610b749061238f565b6104608201528751610b859061238f565b6104808201526020880151610b999061238f565b6104a08201526040880151610bad9061238f565b6104c08201526060880151610bc19061238f565b6104e08201526080880151610bd59061238f565b610500820152606086015160808501516101608a01515f92610c1a929091877f00000000000000000000000000000000000000000000000000000000000000006123f1565b805160a0870151919250610c2d91611fed565b604086018190526101608a01515160c0890151610c5d929161054891610c539190611fed565b8860c00151611fed565b604086015260c0870151610c709061250c565b60608601525f5b610c836001601c615197565b811015610e85575f610cb660017f0000000000000000000000000000000000000000000000000000000000000000615197565b821015905080610e2b57610ce96107978a60e0015188856001610cd99190615170565b601c811061078d5761078d615183565b60a088015260e0890151610d17906107979088610d07866001615170565b601c81106107b1576107b1615183565b60c0880152606087015160a0880151610d309190611fed565b60e0880152606087015160c08a0151610d4c91610c5391611fed565b6101008801819052610d6e90610d61906123d9565b6105488960e001516123d9565b8583610d7c60286001615170565b610d869190615170565b60468110610d9657610d96615183565b60200201526101008701516101608c01515f91610dd291610db8866001615170565b601c8110610dc857610dc8615183565b6020020151611fed565b9050610dee816105488a60e0015187876001610db89190615170565b9050610dfe886040015182612006565b6040890152606088015160c08b0151610e2491610e1a91611fed565b8b60c00151611fed565b6060890152505b610e4f8b610140015183601b8110610e4557610e45615183565b602002015161238f565b8483610e5d60286001615170565b610e679190615170565b60468110610e7757610e77615183565b602002015250600101610c77565b5060408051808201909152600181526002602082015282610ea8601c6028615170565b60468110610eb857610eb8615183565b6020020152604085015183610ecf601c6028615170565b60468110610edf57610edf615183565b60200201526101a08901515f90610ef59061238f565b90508083610f05601c6028615170565b610f10906001615170565b60468110610f2057610f20615183565b602002015260e088015184610f37601c6028615170565b610f42906001615170565b60468110610f5257610f52615183565b60200201525f610f628486612517565b90505f610f6e836125e8565b9050610f7a828261265f565b9c9b505050505050505050505050565b610f9261483a565b50604080516103c0810182526120008152600d602080830191909152600782840152825180840184527f2847590b37087a72de60d28b343bb19f5fb6f8ae9f509291e72c69ea1d96491381527f14d50e44103a2dea11dc9db2e21b283d8dbe7be03df39d13bf22479d6aa6b740818301526060830152825180840184527f12d7167671677fbc7358be9385f4b297c20d461bf5b5d20b4e9b72ab82c385a781527f292a564418bf4fbd2e5443314e5f4e4bc63ef1f6691f3a682222c231c4fcc903818301526080830152825180840184527f1651755a228310abc72deb4c536a0a391e1554cee3564de1fbd1fe76f9a0d68881527f142e845f3707a55b55c50d2e3eeca152ccde4b87b4bf24a1c63535b2b38255ef8183015260a0830152825180840184527f0cacebfcd0beb0e571c9517d9b82a36ce0a6060089a5c65136b215293180653c81527f102c7690da4e7cc0d6c745f44deb0f1067972135058a0087b342975f3ee7dd508183015260c0830152825180840184527f169cd9d60a3fa248c92ba261d4dcf81edd4a23435fb06617aae2c95c701a66cd81527f264c0d8c5653f1ec319404bc1d6ebb37099b0655ceef293707cf7c61959a6f948183015260e0830152825180840184527f2010ff5ff03aeab158a6c32700e45766b53ca8bc815f497b0c91253dc48cc46a81527f0e523cc24eca04fe75ca6113227da329964701e76f9a8a1a5defa443dbf628be81830152610100830152825180840184527f0913b944f225bd3437dc089c770cf3078694e897165159fb022789e582c0a25b81527f179e3ba13edea82a7dc156f47fc3b56433b7c0f2582e8696c494a979ed50e06a81830152610120830152825180840184527f151f3e6fa2c6ea7dd62973ff9fcdafe7b371565f674bdbb9847bdf727c1abc0281527f1ec4a1e2eddac4394e722d0bd10aae2dc27c1bd247c99a60c3a0fc086190169081830152610140830152825180840184527f0182cdd2996227dd31f065075ba388dc4a801392c62fc3a64e5534b093836d8781527f1e81942dbc28f9f4353f2cc92b59c0f02c156085fd66b8f3c2a9755051b07aa381830152610160830152825180840184527f25ef6726c1c59e656186ddcac5e9f866baf866f50fd2c7075a9f27d2106abf3b81527f2b372d7b1d635494ae3e5dd3d7067669a1388d424a4a0918c2bbd9e023b135e381830152610180830152825180840184527f0874fa4519de40d118737e79a5c47f0e1eed68065ec63a001867948afdde3ad181527f2c299ff81a016e2eadcf10146d91484964e18eeed943fbbfd4c941e169256930818301526101a0830152825180840184527f2f07ae303d55bed299c878d201532cc664f3e3d866223b0671f767fb7819b51c81527f0713790fffa077b4aae19022fc86299ad515920fa917e0c683cba3ac915c5f45818301526101c0830152825180840184527f047b641b3ab06cf6328de0aed4c830ca9c9c4f881c9af352af4635a80784b0e081527ea40cffe7e7fc9da1139063cc2440ea9ac1d0e1f41330816d2437f0fca8b62b818301526101e0830152825180840184527f111ddea660bbc8ee94bd6bfd3d12f93bbc6ddde6c7e2dbdf5b405687224083ef81527f16ba1095a96b350333c9d3dd5f884b3b823986677e1d06c1ec38c60dbce1197b81830152610200830152825180840184527f0f26f7c1b11a3a83543ab25dcde19d6b656eb4716f7a0f304195f7b162a40b4c81527f2d5f5145d78730449c518a478d09e24dbd8e7e4288494942c625e2ef98b56c8781830152610220830152825180840184527f24c5e3b916bcbc6b80ef2856bd92cbf8065ecc9a5ebf52cf3c294c249a934f9581527f0fa3e002a12475c3db3fce9be152cef4aa7a22d5083ac7aa303677a102ff489981830152610240830152825180840184527f1cf801bfbbd350ee4ca66b1340b9a34cb125dae7f66d1c13bade11f439a291be81527f1d501131e09ee93de73b94d58a6c0d450341b8863a1a5f3153ae9b983413a6e681830152610260830152825180840184527f25922ce096c6cc5678d1f0e5e66a685a3c381af2fef8894ae3c310b467ea92f181527f2930cc296a357914e84aff1e4b3681f4b3486977cfa8894b80718ef0025ebf7881830152610280830152825180840184527f01c4300acc9b5f6fc58969f83bbaa935881da37d3409570704f7ae68ace0851381527f19285ff5eaad91cacfcf96cb9678221f502139a3f47743bcbae96318c5cd3b09818301526102a0830152825180840184527f153f324fed6eb4299c78fb0f6c7a8a4433a0ee96d99438333f53d64fe083e3a981527e690b64be3499bb458af96a49bc08678a2a462ecceeab04faa058da4a55ee58818301526102c0830152825180840184527eae291ae5150cf7b652d08bff6b1254928a1c1c37929f1ec4c0ffc76e38c0d181527f297e0be97b4804aa803a1cd89ed691c291c916a09b7cba66ad00fefbd71cf2a8818301526102e0830152825180840184527f224948ddbcddb1e360efa2ac511aacd0d3258758dfa9bae9e415f6d48d990e1681527f1011627c159ab9f3ff0a0416a01df6f6a101330e9f928dc80a3d3b9afefb373a81830152610300830152825180840184527f18dab63316305864682bfe7b586e912ec420ad50087360c152c131400547bcc681527f1edb4d30542aa0ac4fe8eb31fc2ce04bd9f352c132c7ae6bed5ea997693e630081830152610320830152825180840184527f0da213c79d7e44cd308766f068a2397abc60e991844a8abade001179d144e3f681527f03a6668aae5f6093de550d4d868840054dca22307d50e5beb76576afd31e250c81830152610340830152825180840184527f07ea92c2de0345ded1d25b237f08456f99a40f79f14ed78a291d53d0425ddc9d81527f255aeaa6894472e3cb6b0a790cf290bc1328fa2c343da93cb98486d414f0a40a81830152610360830152825180840184526001815260028183015261038083015282518084019093527f24347db02ff0c89e5d24457143ff13eeb696ec43a2dacc75924547360bffa57083527f09082ff38fc4fafa81e0e1a9c1a808dd11d34d7eff01c69ae274333a5d167942908301526103a081019190915290565b61189360405180608001604052805f81526020015f81526020015f81526020015f81525090565b608082146118de5760405162461bcd60e51b81526020600482015260136024820152721a5b9d985b1a5908189e5d195cc81c1bda5b9d606a1b60448201526064015b60405180910390fd5b6040805160808101909152806118f760205f8688615149565b611900916151c2565b8152602090810190611916906040908688615149565b61191f916151c2565b8152602001611932606060408688615149565b61193b916151c2565b815260200161194e608060608688615149565b611957916151c2565b90529392505050565b5f602082146119a85760405162461bcd60e51b815260206004820152601460248201527334b73b30b634b210313cba32b99039b1b0b630b960611b60448201526064016118d5565b6119b561053e83856151c2565b9392505050565b6119ef6040518060c001604052805f81526020015f81526020015f81526020015f81526020015f81526020015f81525090565b5f6119fe898989898989612863565b604086019190915260208501919091529083529250611a1d838a612c86565b608085019190915260608401919091529199919850909650505050505050565b611a45614e87565b5f611a4e614ea6565b84815260e0848101805151602080850191909152815181015160408086019190915282518101516060808701919091529251830151608080870191909152880180515160a0870152805183015160c08701528051820151948601949094529251909101516101008401529051611ae591611aca918491016151df565b60405160208183030381529060405280519060200120611fcf565b9150611af082612d51565b6020850152835260015b611b0660026019615227565b811015611b8657611b2383604051602001611aca91815260200190565b9250611b2e83612d51565b85611b3a846002615132565b60198110611b4a57611b4a615183565b6020020186611b5a856002615132565b611b65906001615170565b60198110611b7557611b75615183565b602002019190915252600101611afa565b50611b9d82604051602001611aca91815260200190565b91505f611ba983612d51565b85611bb660016019615197565b60198110611bc657611bc6615183565b60200201919091525050509250929050565b611be0614ec5565b5f805b601c811015611c3257611c0284604051602001611aca91815260200190565b93505f611c0e85612d51565b8584601c8110611c2057611c20615183565b60200201919091525050600101611be3565b5090929050565b611c41614ec5565b5f805b601c811015611d0457611c55614ea6565b8481525f5b6008811015611cbe5786610100015183601c8110611c7a57611c7a615183565b60200201518160088110611c9057611c90615183565b602002015182611ca1836001615170565b60098110611cb157611cb1615183565b6020020152600101611c5a565b50611cd381604051602001611aca91906151df565b94505f611cdf86612d51565b8685601c8110611cf157611cf1615183565b6020020191909152505050600101611c44565b50909391925050565b5f5f611d17614ee4565b8381525f5b6028811015611d6a578561012001518160288110611d3c57611d3c615183565b602002015182611d4d836001615170565b60298110611d5d57611d5d615183565b6020020152600101611d1c565b50611d7f81604051602001611aca919061523a565b91505f611d8b83612d51565b5096929550919350505050565b5f5f611da2614f03565b8381525f5b611db36001601c615197565b811015611ef15785610140015181601b8110611dd157611dd1615183565b60200201515182611de3836004615132565b611dee906001615170565b606d8110611dfe57611dfe615183565b602002015261014086015181601b8110611e1a57611e1a615183565b60200201516020015182826004611e319190615132565b611e3c906002615170565b606d8110611e4c57611e4c615183565b602002015261014086015181601b8110611e6857611e68615183565b60200201516040015182611e7d836004615132565b611e88906003615170565b606d8110611e9857611e98615183565b602002015261014086015181601b8110611eb457611eb4615183565b60200201516060015182611ec9836004615132565b611ed4906004615170565b606d8110611ee457611ee4615183565b6020020152600101611da7565b50611d7f81604051602001611aca919061526e565b5f5f611f10614f22565b8381525f5b601c811015611f635785610160015181601c8110611f3557611f35615183565b602002015182611f46836001615170565b601d8110611f5657611f56615183565b6020020152600101611f15565b50611d7f81604051602001611aca91906152a2565b5f5f611f82614f41565b83815261018085018051516020808401919091528151810151604080850191909152825181015160608086019190915292519092015160808401529051611d7f91611aca918491016152d6565b5f611fe75f5160206153f85f395f51905f5283615309565b92915050565b5f5f5160206153f85f395f51905f528284099392505050565b5f5f5160206153f85f395f51905f528284089392505050565b5f5f5160206153f85f395f51905f52612045835f5160206153f85f395f51905f52615197565b84089392505050565b5f6119b58361054384612326565b81515f90819061206e908560016107b1565b929092149392505050565b60408051610100810182527f30644e72e131a029b85045b68181585d2833e84879b9709143e1f593efffec5181526102d060208201527f30644e72e131a029b85045b68181585d2833e84879b9709143e1f593efffff1191810191909152609060608201527f30644e72e131a029b85045b68181585d2833e84879b9709143e1f593efffff71608082015260f060a08201527f30644e72e131a029b85045b68181585d2833e84879b9709143e1f593effffd3160c08201526113b060e08201525f906001825b60088110156121605761215682610543878461201f565b915060010161213f565b50612169614f5f565b5f5b60088110156121ca575f84826008811061218757612187615183565b6020020151905061219c81610543898561201f565b90506121a781612326565b9050808383600881106121bc576121bc615183565b60200201525060010161216b565b505f5b600881101561221d575f8782600881106121e9576121e9615183565b6020020151905061220681848460088110610dc857610dc8615183565b90506122128682612006565b9550506001016121cd565b5061070c8483611fed565b5f5f61223e60016105488561054389600161201f565b905061224a8482611fed565b95945050505050565b5f61225c614f7e565b612267868285612d8a565b61227386868386612f36565b61227f8686838661311e565b61228a86828561331a565b612295868285613502565b6122a18686838661384b565b6122ac8682856140e5565b6122b78682856144b0565b61070c81856147a5565b6122c9614ec5565b81815260015b601c81101561232057612301826122e7600184615197565b601c81106122f7576122f7615183565b602002015161250c565b8282601c811061231357612313615183565b60200201526001016122cf565b50919050565b5f5f8290505f604051602081526020808201526020604082015282606082015260025f5160206153f85f395f51905f520360808201525f5160206153f85f395f51905f5260a082015260205f60c08360055afa905080612384575f5ffd5b50505f519392505050565b604080518082019091525f8082526020820152604051806040016040528060888460200151901b845f015117815260200160888460600151901b8460400151178152509050919050565b5f611fe7825f5160206153f85f395f51905f52615197565b6123f9614ec5565b601c5b8015612502575f8461240f600184615197565b601c811061241f5761241f615183565b602002015190505f88612433600185615197565b601c811061244357612443615183565b602002015190505f61249e61246261245b858c611fed565b6002611fed565b6105668a612471600189615197565b601c811061248157612481615183565b60200201516105436124988861054360018a61201f565b8761201f565b90506124bf816105436107976124b98761054360018961201f565b86612006565b90508584116124ee5797508780856124d8600187615197565b601c81106124e8576124e8615183565b60200201525b505050806124fb9061531c565b90506123fc565b5095945050505050565b5f611fe78283611fed565b604080518082019091525f80825260208201525f612537601c6028615170565b612542906002615170565b90506001604051855151604082015285516020015160608201528451608082015260408160606040840160075afa8216915060015b838110156125d05760208102870160208202870181515160408501528151602001516060850152805160808501525050604080830160606040850160075afa8316925060408260808460065afa90921691600101612577565b50805184526020810151602085015250505092915050565b604080518082019091525f80825260208201527f30644e72e131a029b85045b68181585d97816a916871ca8d3c208c16d87cfd4782602001517f30644e72e131a029b85045b68181585d97816a916871ca8d3c208c16d87cfd4761264c9190615197565b6126569190615309565b60208301525090565b81516020808401518351848301516040805194850195909552938301919091527f198e9393920d483a7260bfb731fb5d25f1aa493335a9e71297e485b7aef312c260608301527f1800deef121f1e76426a00665e5c4479674322d4f75edadd46debd5cd992f6ed60808301527f090689d0585ff075ec9e99ad690c3395bc4b313370b38ef355acdadcd122975b60a08301527f12c85ea5db8c6deb4aab71808dcb408fe3d1e7690c43d37b4ce6cc0166fa7daa60c083015260e08201526101008101919091527f260e01b251f6f1c7e7ff4e580791dee8ea51d87a358e038b4efe30fac09383c16101208201527f0118c4d5b837bcc2bc89b5b398b5974e9f5944073b32078b7e231fec938883b06101408201527f04fc6369f7110fe3d25156c1bb9a72859cf2a04641f99ba4ee413c80da6a5fe46101608201527f22febda3c0c0632a56475b4214e5615e11e6dd3f96e6cea2854a87d4dacc5e556101808201525f9081906101a00160405160208183030381529060405290505f5f60086001600160a01b0316836040516127f59190615331565b5f60405180830381855afa9150503d805f811461282d576040519150601f19603f3d011682016040523d82523d5f602084013e612832565b606091505b50915091505f8180602001905181019061284c9190615347565b90508280156128585750805b979650505050505050565b5f80808080612873876003615170565b61287e90600c615170565b67ffffffffffffffff81111561289657612896615366565b6040519080825280602002602001820160405280156128bf578160200160208202803683370190505b509050875f1b815f815181106128d7576128d7615183565b602002602001018181525050865f1b816001815181106128f9576128f9615183565b602002602001018181525050855f1b8160028151811061291b5761291b615183565b60209081029190910101525f5b8781101561297a578a8a8281811061294257612942615183565b90506020020135828260036129579190615170565b8151811061296757612967615183565b6020908102919091010152600101612928565b508a51518161298a896003615170565b8151811061299a5761299a615183565b6020908102919091018101919091528b510151816129b9896003615170565b6129c4906001615170565b815181106129d4576129d4615183565b60209081029190910101528a5160400151816129f1896003615170565b6129fc906002615170565b81518110612a0c57612a0c615183565b60209081029190910101528a516060015181612a29896003615170565b612a34906003615170565b81518110612a4457612a44615183565b6020908102919091018101919091528b01515181612a63896003615170565b612a6e906004615170565b81518110612a7e57612a7e615183565b6020908102919091018101919091528b810151015181612a9f896003615170565b612aaa906005615170565b81518110612aba57612aba615183565b6020908102919091018101919091528b01516040015181612adc896003615170565b612ae7906006615170565b81518110612af757612af7615183565b6020908102919091018101919091528b01516060015181612b19896003615170565b612b24906007615170565b81518110612b3457612b34615183565b602090810291909101015260408b01515181612b51896003615170565b612b5c906008615170565b81518110612b6c57612b6c615183565b60209081029190910181019190915260408c0151015181612b8e896003615170565b612b99906009615170565b81518110612ba957612ba9615183565b60209081029190910101526040808c0151015181612bc8896003615170565b612bd390600a615170565b81518110612be357612be3615183565b602090810291909101015260408b01516060015181612c03896003615170565b612c0e90600b615170565b81518110612c1e57612c1e615183565b602002602001018181525050612c3e81604051602001611aca919061537a565b9150612c4982612d51565b6040805160208101869052929750909550612c649101611aca565b91505f612c7083612d51565b50959c949b509499509097509195505050505050565b5f5f5f612c91614f9d565b85815260a0858101805151602080850191909152815181015160408086019190915282518101516060808701919091529251830151608086015260c0808a0180515195870195909552845183015190860152835181015160e086015292518201516101008501528188018051516101208601528051820151610140860152805184015161016086015251909101516101808401529051612d3791611aca918491016153af565b9150612d4282612d51565b90979096509194509092505050565b5f80826fffffffffffffffffffffffffffffffff8116608082901c612d7582611fcf565b9450612d8081611fcf565b9350505050915091565b5f612d9684600761480a565b90507f183227397098d014dc2822db40c0ac2e9419f4243cdcb848a1f0fac9f80000005f612df7612df1612dcb85600361201f565b610543612de6612ddb8b5f61480a565b6105438c601c61480a565b6105438b601b61480a565b83611fed565b9050612e78612e6d612e54612e3b612e2285610548612e178d600261480a565b6105438e601b61480a565b610548612e308c600361480a565b6105438d601c61480a565b610548612e498b600461480a565b6105438c601d61480a565b610548612e628a600561480a565b6105438b601e61480a565b61054888600161480a565b9050612e9781610548612e8c86600161201f565b6105438a602661480a565b9050612ea38184611fed565b9050612eaf8185611fed565b8552505f9050612ee9612edf612ed4612ec988601b61480a565b61054889601e61480a565b61056688602361480a565b610548875f61480a565b9050612efa8161054384600261201f565b9050612f0b8161054384600161201f565b9050612f178183611fed565b9050612f238184611fed565b9050808460015b60200201525050505050565b5f5f5f612f6c612f62612f4a89601b61480a565b610548612f588b601161480a565b8a60600151611fed565b8760800151612006565b9050612fa581610543612f9b612f838b601c61480a565b610548612f918d601261480a565b8c60600151611fed565b8960800151612006565b9050612fca81610543612f9b612fbc8b601d61480a565b610548612f918d601361480a565b9050612fef81610543612f9b612fe18b601e61480a565b610548612f918d601461480a565b92505f9050613013612f6261300589601b61480a565b610548612f588b600d61480a565b905061303881610543612f9b61302a8b601c61480a565b610548612f918d600e61480a565b905061305d81610543612f9b61304f8b601d61480a565b610548612f918d600f61480a565b905061308281610543612f9b6130748b601e61480a565b610548612f918d601061480a565b91505f90506130a96130a361309889601f61480a565b6105488a601961480a565b84611fed565b90506130de816105666130d86130c08b602761480a565b6105486130ce8d601a61480a565b8c60a00151611fed565b85611fed565b90506130ea8185611fed565b6040860152505f61310d6130d861310289601a61480a565b6105438a602761480a565b606090950194909452505050505050565b5f5f61317c61316461314c613137612f9b8a601561480a565b6105486131458b601661480a565b8a51611fed565b61054861315a8a601761480a565b8960200151611fed565b61054861317289601861480a565b8860400151611fed565b91505f6131b361319a61319089601b61480a565b8860800151612006565b6105486131a88a600361480a565b6105438b602361480a565b90505f6131dc6131c489601c61480a565b6105486131d18b5f61480a565b6105438c602461480a565b90505f6132066131ed8a601d61480a565b6105486131fb8c600161480a565b6105438d602561480a565b905061324561322d61321f85610548868d5f0151611fed565b610548848c60200151611fed565b61054861323b8c600461480a565b8b60400151611fed565b93505050505f6132596130a388602061480a565b90505f61326a6130a389602061480a565b90505f6132a261328961327e8b602261480a565b6105488c600661480a565b6105666132978c602261480a565b6105438d600661480a565b90505f6132c66132c06132b58789611fed565b6105438d602061480a565b8361201f565b90506132d28188611fed565b90505f6132fa6132ec6132e68d600661480a565b87611fed565b6105666132e68e602161480a565b60808a018390529050808960055b60200201525050505050505050505050565b5f6133265f600161201f565b90505f6133345f600261201f565b90505f6133425f600361201f565b90505f61335e61335388601c61480a565b61056689601b61480a565b90505f61337a61336f89601d61480a565b6105668a601c61480a565b90505f61339661338b8a601e61480a565b6105668b601d61480a565b90505f6133b26133a78b602361480a565b6105668c601e61480a565b9050836133c381610543818b612006565b90506133d381610543878a612006565b90506133e3816105438789612006565b90506133f4816105438d600861480a565b9050613400818a611fed565b60c08b0152508261341581610543818b612006565b905061342581610543868a612006565b9050613435816105438689612006565b9050613446816105438d600861480a565b9050613452818a611fed565b60e08b0152508161346781610543818b612006565b905061347781610543858a612006565b9050613487816105438589612006565b9050613498816105438d600861480a565b90506134a4818a611fed565b6101008b015250806134ba81610543818b612006565b90506134ca81610543848a612006565b90506134da816105438489612006565b90506134eb816105438d600861480a565b90506134f7818a611fed565b9050808a6009613308565b61353b6040518060e001604052805f81526020015f81526020015f81526020015f81526020015f81526020015f81526020015f81525090565b61354684601c61480a565b815261355384601d61480a565b602082015261356384602361480a565b604082015261357384602661480a565b606082015261358384602561480a565b608082015261359384602461480a565b60a08201525f6135a485600261480a565b90505f6135b1865f61480a565b90505f6135c58460400151855f015161201f565b90505f6135da85602001518660200151611fed565b606086015190915086905f906135f09080611fed565b90505f61360e61360889602001518a60600151611fed565b88611fed565b90505f61362d6136268a60a001518b60400151612006565b8a51612006565b905061363c6132e68288611fed565b905061366361365d613657613651848761201f565b8861201f565b84612006565b83612006565b905061368b6136806136758387611fed565b6105438f600961480a565b61054360018a61201f565b6101408c015250505050602085015160808601515f916136aa91612006565b90505f6136c86136be886060015188611fed565b886020015161201f565b90505f6136ec6136d88487611fed565b6105486130d88b60a001518c5f015161201f565b90506137146137096136fe838c611fed565b6105438e600961480a565b61054360018961201f565b6101608b0152505f9150613735905061372e836011612006565b8751611fed565b90505f6137428384612006565b905061374e8182612006565b90505f61375c836009611fed565b905061378561377f6130a36137788b60a001518c5f0151612006565b8b51612006565b8261201f565b60c089018190525f906137a09061360890613675908d611fed565b90506137b38b600a602002015182612006565b6101408c0152505086515f92506137da915061372e906137d39080612006565b8851612006565b90505f61381a6137f5836105438a5f01518b60a0015161201f565b6020890151610566906138089080612006565b6105438b602001518c60800151612006565b905061383789600b6020020151610548613608613675858d611fed565b89600b602002015250505050505050505050565b6138df604051806102c001604052805f81526020015f81526020015f81526020015f81526020015f81526020015f81526020015f81526020015f81526020015f81526020015f81526020015f81526020015f81526020015f81526020015f81526020015f81526020015f81526020015f81526020015f81526020015f81526020015f81526020015f81526020015f81525090565b6139146138fb6138f087601b61480a565b61054388602461480a565b61054861390988602361480a565b61054389601c61480a565b815261395961394e61393561392a88601b61480a565b61054389601e61480a565b61054861394389601c61480a565b6105438a601d61480a565b61056687602561480a565b6040820181905261396e90600160441b611fed565b604082018190526139849061056687602661480a565b6040820181905281516139979190612006565b604082018190526139ad9061054387600561480a565b604082015280516139c290600160441b611fed565b8082526139e2906105486139d788602361480a565b61054389602461480a565b808252602082018190526139fe90610566612ec988601d61480a565b60208201819052613a149061054387600461480a565b6020820152805160608201819052613a319061054887601e61480a565b60608201819052613a5590610566613a4a88602561480a565b61054889602661480a565b60608201819052613a6a90610543875f61480a565b8160600181815250505f613a93613a8983602001518460400151612006565b8360600151612006565b9050613aa48161054388600361480a565b9050613abc613ab487602461480a565b614000611fed565b60808301819052613ad29061054888602361480a565b60808301819052613ae590614000611fed565b60808301819052613afb9061054888601d61480a565b60808301819052613b0e90614000611fed565b60808301819052613b249061054888601c61480a565b60808301819052613b3790614000611fed565b60808301819052613b4d9061054888601b61480a565b60808301819052613b639061056688601e61480a565b60808301819052613b799061054388600561480a565b6080830152613b8c613ab487602561480a565b60a08301819052613ba29061054888602461480a565b60a08301819052613bb590614000611fed565b60a08301819052613bcb9061054888602361480a565b60a08301819052613bde90614000611fed565b60a08301819052613bf49061054888601e61480a565b60a08301819052613c0790614000611fed565b60a08301819052613c1d9061054888601d61480a565b60a08301819052613c339061056688602661480a565b60a08301819052613c4890610543885f61480a565b60a0830181905260808301515f91613c609190612006565b9050613c718161054389600461480a565b9050613c8b613c8188601d61480a565b8760400151611fed565b60c08401819052613ca49061054861315a8a601c61480a565b60c08401819052613cc490610548613cbd8a601b61480a565b8951611fed565b60c08401819052613cda9061054889600161480a565b60c0840181905260e08401819052613cf79061056689601e61480a565b60c0840152613d0a61335388602361480a565b610140840152613d29613d1e88602661480a565b61056689601e61480a565b610120840152610140830151613d4e90613d439080611fed565b84610140015161201f565b610280840152610140830151613d9090613d8590613d7e9061054360015f5160206153f85f395f51905f52615197565b6001612006565b846101200151611fed565b6101608401819052613dc790613db990610543613dae8b600261480a565b6105438c600361480a565b6105436132e68a600a61480a565b6101a0860152610280830151613de990613db990610543613dae8b600261480a565b6101c086015260c0830151613e1190610543613e068a600261480a565b6105438b600361480a565b6101e08401525f613e30613e2689601e61480a565b8560e0015161201f565b9050613e3f61377f8283611fed565b6101a0850152613e5361317289602561480a565b6101008501819052613e7790610548613e6d8b602461480a565b8a60200151611fed565b6101008501819052613e91906105486131458b602361480a565b610100850152613eb0613ea589602661480a565b85610100015161201f565b6101008501525f613ec561338b8a602561480a565b9050613f19613ef3612df1613d7e88610140015160015f5160206153f85f395f51905f526105439190615197565b610543613d7e88610100015160015f5160206153f85f395f51905f526105439190615197565b610180860152610100850151613f3e90613f339080611fed565b86610100015161201f565b6101c0860152610180850151613f7190613f5d906105438c600761480a565b610543613f6b8c600a61480a565b89611fed565b6101e0880152610280850151613f9090613f5d906105438c600761480a565b6102008801526101c0850151613faf90613f5d906105438c600761480a565b6102208801526101a0850151613fca906105438b600761480a565b610200860152613fe9613fde8a602461480a565b6105668b601c61480a565b6102208601526101408501516140289061338b9061401d90613d7e9061054360015f5160206153f85f395f51905f52615197565b876102200151611fed565b61024086018190526101e0860151610260870181905261405f91610548906105436140548e600561480a565b6105438f600261480a565b610260860181905260c08601516140829190610548906105436140548e5f61480a565b610260860181905261020086015161409a9190612006565b61026086018190526140b0906136579086612006565b6102a086018190526140ca90610543613f6b8c600a61480a565b6102a0860181905287600c6020020152505050505050505050565b61415b6040518061022001604052805f81526020015f81526020015f81526020015f81526020015f81526020015f81526020015f81526020015f81526020015f81526020015f81526020015f81526020015f81526020015f81526020015f81526020015f81526020015f81526020015f81525090565b61417461416985601b61480a565b61054886600261480a565b815261418f61418485601c61480a565b61054886600361480a565b60208201526141ad6141a285601d61480a565b61054886600461480a565b60408201526141cb6141c085601e61480a565b61054886600561480a565b606082015280516141fd906141f6906141ef906141e89080611fed565b8451611fed565b8351611fed565b8251611fed565b6080820152602081015161423b90614231906142279061421d9080611fed565b8460200151611fed565b8360200151611fed565b8260200151611fed565b60a082015260408101516142799061426f906142659061425b9080611fed565b8460400151611fed565b8360400151611fed565b8260400151611fed565b60c082015260608101516142b7906142ad906142a3906142999080611fed565b8460600151611fed565b8360600151611fed565b8260600151611fed565b60e0820152608081015160a08201516142d09190612006565b61010082015260c081015160e08201516142ea9190612006565b61012082015260a081015161430e906143039080612006565b826101200151612006565b61014082015260e0810151614332906143279080612006565b826101000151612006565b6101608201526101208101516143489080612006565b6101e082018190526143699061435e9080612006565b826101600151612006565b6101e082015261010081015161437f9080612006565b6101a082018190526143a0906143959080612006565b826101400151612006565b6101a082018190526101608201516143b791612006565b6101808201526101408101516101e08201516143d39190612006565b6101c08201526143e7612df185600b61480a565b61020082018190526102408401516101808301516144129261054891610543906105668a602361480a565b83601260200201526144428360136020020151610548836102000151610543856101a001516105668a602461480a565b83601360200201526144728360146020020151610548836102000151610543856101c001516105668a602561480a565b83601460200201526144a28360156020020151610548836102000151610543856101e001516105668a602661480a565b836015602002015250505050565b6145026040518061016001604052805f81526020015f81526020015f81526020015f81526020015f81526020015f81526020015f81526020015f81526020015f81526020015f81526020015f81525090565b5f60405180608001604052806145377f10dc6e9c006ea38b04b1e03b4bd9490c0d03f98929ca1d7fb56821fd19d3b6e7611fcf565b81526020016145657f0c28145b6a44df3e0149b3d0a30b3bb599df9756d4dd9b84a86b38cfb45a740b611fcf565b81526020016145927e544b8338791518b2c7645a50392798b21f75bb60e3596170067d00141cac15611fcf565b81526020016145c07f222c01175718386f2e2e82eb122789e352e105a3b8fa852613bc534433ee428b611fcf565b905290506145dd6145d286601b61480a565b61054887600261480a565b61012083018190526146119061460690613d85906145fb9080611fed565b856101200151611fed565b836101200151611fed565b825261461e85601c61480a565b602083015261462e85601d61480a565b604083015261463e85601e61480a565b60608301528151602083015161466691613a899161465c9190612006565b8460400151612006565b60808301526146796130a386600c61480a565b610140830152815161469a9061469090835f610dc8565b8360800151612006565b60a08301526146c684601660200201516105488461014001516105438660a001516105668b602361480a565b6102c085015260208201516146e19061469090836001610dc8565b60c083015261470d84601760200201516105488461014001516105438660c001516105668b602461480a565b6102e085015260408201516147289061469090836002610dc8565b60e083015261475484601860200201516105488461014001516105438660e001516105668b602561480a565b610300850152606082015161476f9061469090836003610dc8565b61010083015261479d84601960200201516105488461014001516105438661010001516105668b602661480a565b846019612f2a565b5f6147b18184816107b1565b905060015b601a811015614803576147f9826105488684601a81106147d8576147d8615183565b6020020151866147e9600187615197565b60198110610dc857610dc8615183565b91506001016147b6565b5092915050565b5f8282602781111561481e5761481e6153e3565b6028811061482e5761482e615183565b60200201519392505050565b604051806103c001604052805f81526020015f81526020015f815260200161487360405180604001604052805f81526020015f81525090565b815260200161489360405180604001604052805f81526020015f81525090565b81526020016148b360405180604001604052805f81526020015f81525090565b81526020016148d360405180604001604052805f81526020015f81525090565b81526020016148f360405180604001604052805f81526020015f81525090565b815260200161491360405180604001604052805f81526020015f81525090565b815260200161493360405180604001604052805f81526020015f81525090565b815260200161495360405180604001604052805f81526020015f81525090565b815260200161497360405180604001604052805f81526020015f81525090565b815260200161499360405180604001604052805f81526020015f81525090565b81526020016149b360405180604001604052805f81526020015f81525090565b81526020016149d360405180604001604052805f81526020015f81525090565b81526020016149f360405180604001604052805f81526020015f81525090565b8152602001614a1360405180604001604052805f81526020015f81525090565b8152602001614a3360405180604001604052805f81526020015f81525090565b8152602001614a5360405180604001604052805f81526020015f81525090565b8152602001614a7360405180604001604052805f81526020015f81525090565b8152602001614a9360405180604001604052805f81526020015f81525090565b8152602001614ab360405180604001604052805f81526020015f81525090565b8152602001614ad360405180604001604052805f81526020015f81525090565b8152602001614af360405180604001604052805f81526020015f81525090565b8152602001614b1360405180604001604052805f81526020015f81525090565b8152602001614b3360405180604001604052805f81526020015f81525090565b8152602001614b5360405180604001604052805f81526020015f81525090565b8152602001614b7360405180604001604052805f81526020015f81525090565b8152602001614b9360405180604001604052805f81526020015f81525090565b8152602001614bb360405180604001604052805f81526020015f81525090565b905290565b604051806101c00160405280614beb60405180608001604052805f81526020015f81526020015f81526020015f81525090565b8152602001614c1760405180608001604052805f81526020015f81526020015f81526020015f81525090565b8152602001614c4360405180608001604052805f81526020015f81526020015f81526020015f81525090565b8152602001614c6f60405180608001604052805f81526020015f81526020015f81526020015f81525090565b8152602001614c9b60405180608001604052805f81526020015f81526020015f81526020015f81525090565b8152602001614cc760405180608001604052805f81526020015f81526020015f81526020015f81525090565b8152602001614cf360405180608001604052805f81526020015f81526020015f81526020015f81525090565b8152602001614d1f60405180608001604052805f81526020015f81526020015f81526020015f81525090565b8152602001614d2c614fbc565b8152602001614d39614fea565b8152602001614d46615009565b8152602001614d53614ec5565b8152602001614d7f60405180608001604052805f81526020015f81526020015f81526020015f81525090565b8152602001614bb360405180608001604052805f81526020015f81526020015f81526020015f81525090565b604051806101000160405280614dea6040518060c001604052805f81526020015f81526020015f81526020015f81526020015f81526020015f81525090565b8152602001614df7614e87565b8152602001614e04614ec5565b8152602001614e11614ec5565b81526020015f81526020015f81526020015f81526020015f81525090565b604051806108c001604052806046906020820280368337509192915050565b604051806108c001604052806046905b604080518082019091525f8082526020820152815260200190600190039081614e5e5790505090565b6040518061032001604052806019906020820280368337509192915050565b6040518061012001604052806009906020820280368337509192915050565b604051806103800160405280601c906020820280368337509192915050565b6040518061052001604052806029906020820280368337509192915050565b60405180610da00160405280606d906020820280368337509192915050565b604051806103a00160405280601d906020820280368337509192915050565b6040518060a001604052806005906020820280368337509192915050565b6040518061010001604052806008906020820280368337509192915050565b604051806103400160405280601a906020820280368337509192915050565b604051806101a00160405280600d906020820280368337509192915050565b604051806103800160405280601c905b614fd4614f5f565b815260200190600190039081614fcc5790505090565b6040518061050001604052806028906020820280368337509192915050565b604051806103600160405280601b905b61504060405180608001604052805f81526020015f81526020015f81526020015f81525090565b8152602001906001900390816150195790505090565b5f5f5f5f60408587031215615069575f5ffd5b843567ffffffffffffffff81111561507f575f5ffd5b8501601f8101871361508f575f5ffd5b803567ffffffffffffffff8111156150a5575f5ffd5b8760208284010111156150b6575f5ffd5b60209182019550935085013567ffffffffffffffff8111156150d6575f5ffd5b8501601f810187136150e6575f5ffd5b803567ffffffffffffffff8111156150fc575f5ffd5b8760208260051b8401011115615110575f5ffd5b949793965060200194505050565b634e487b7160e01b5f52601160045260245ffd5b8082028115828204841417611fe757611fe761511e565b5f5f85851115615157575f5ffd5b83861115615163575f5ffd5b5050820193919092039150565b80820180821115611fe757611fe761511e565b634e487b7160e01b5f52603260045260245ffd5b81810381811115611fe757611fe761511e565b5f600182016151bb576151bb61511e565b5060010190565b80356020831015611fe7575f19602084900360031b1b1692915050565b5f8183825b60098110156152035781518352602092830192909101906001016151e4565b5050506101208201905092915050565b634e487b7160e01b5f52601260045260245ffd5b5f8261523557615235615213565b500490565b5f8183825b602981101561525e57815183526020928301929091019060010161523f565b5050506105208201905092915050565b5f8183825b606d811015615292578151835260209283019290910190600101615273565b505050610da08201905092915050565b5f8183825b601d8110156152c65781518352602092830192909101906001016152a7565b5050506103a08201905092915050565b5f8183825b60058110156152fa5781518352602092830192909101906001016152db565b50505060a08201905092915050565b5f8261531757615317615213565b500690565b5f8161532a5761532a61511e565b505f190190565b5f82518060208501845e5f920191825250919050565b5f60208284031215615357575f5ffd5b815180151581146119b5575f5ffd5b634e487b7160e01b5f52604160045260245ffd5b81515f90829060208501835b828110156153a4578151845260209384019390910190600101615386565b509195945050505050565b5f8183825b600d8110156153d35781518352602092830192909101906001016153b4565b5050506101a08201905092915050565b634e487b7160e01b5f52602160045260245ffdfe30644e72e131a029b85045b68181585d2833e84879b9709143e1f593f0000001a26469706673582212208e9aa8ec1d782a67a3aea9ba32d129f9defa24dfa1d043308aba3fc3dc75353a64736f6c634300081c0033",
    "linkReferences": {}
  },
  "methodIdentifiers": {
    "airdrop(bytes,bytes32[])": "78cc43f1",
    "airdrop_amount()": "0b32300c",
    "bonk_verifier()": "add69689",
    "zkl()": "8f059e95"
  },
  "id": 21
}