{"abi":[{"type":"constructor","inputs":[{"name":"_airdrop_amount","type":"uint256","internalType":"uint256"},{"name":"circulating_supply","type":"uint256","internalType":"uint256"}],"stateMutability":"nonpayable"},{"type":"function","name":"airdrop","inputs":[],"outputs":[],"stateMutability":"nonpayable"},{"type":"function","name":"airdrop_amount","inputs":[],"outputs":[{"name":"","type":"uint256","internalType":"uint256"}],"stateMutability":"view"},{"type":"function","name":"zkl","inputs":[],"outputs":[{"name":"","type":"address","internalType":"contract ZKL"}],"stateMutability":"view"}],"bytecode":{"object":"0x608060405234801561000f575f5ffd5b50604051610b88380380610b8883398101604081905261002e916100db565b60405161003a906100ce565b604051809103905ff080158015610053573d5f5f3e3d5ffd5b505f80546001600160a01b0319166001600160a01b0392909216918217905560018390556040516340c10f1960e01b8152306004820152602481018390526340c10f19906044015f604051808303815f87803b1580156100b1575f5ffd5b505af11580156100c3573d5f5f3e3d5ffd5b5050505050506100fd565b6109178061027183390190565b5f5f604083850312156100ec575f5ffd5b505080516020909101519092909150565b6101678061010a5f395ff3fe608060405234801561000f575f5ffd5b506004361061003f575f3560e01c80630b32300c146100435780633884d6351461005f5780638f059e9514610069575b5f5ffd5b61004c60015481565b6040519081526020015b60405180910390f35b610067610093565b005b5f5461007b906001600160a01b031681565b6040516001600160a01b039091168152602001610056565b5f5460015460405163a9059cbb60e01b815233600482015260248101919091526001600160a01b039091169063a9059cbb906044016020604051808303815f875af11580156100e4573d5f5f3e3d5ffd5b505050506040513d601f19601f82011682018060405250810190610108919061010b565b50565b5f6020828403121561011b575f5ffd5b8151801515811461012a575f5ffd5b939250505056fea2646970667358221220008c9be81da2323f62f6dde2ced6d24a37db44d71147347ab7aeaf83c0104a6364736f6c634300081c0033608060405234801561000f575f5ffd5b50604051806040016040528060098152602001682d25a6102a37b5b2b760b91b815250604051806040016040528060038152602001621692d360ea1b815250816003908161005d919061010a565b50600461006a828261010a565b5050506101c4565b634e487b7160e01b5f52604160045260245ffd5b600181811c9082168061009a57607f821691505b6020821081036100b857634e487b7160e01b5f52602260045260245ffd5b50919050565b601f82111561010557805f5260205f20601f840160051c810160208510156100e35750805b601f840160051c820191505b81811015610102575f81556001016100ef565b50505b505050565b81516001600160401b0381111561012357610123610072565b610137816101318454610086565b846100be565b6020601f821160018114610169575f83156101525750848201515b5f19600385901b1c1916600184901b178455610102565b5f84815260208120601f198516915b828110156101985787850151825560209485019460019092019101610178565b50848210156101b557868401515f19600387901b60f8161c191681555b50505050600190811b01905550565b610746806101d15f395ff3fe608060405234801561000f575f5ffd5b506004361061009b575f3560e01c806340c10f191161006357806340c10f191461011457806370a082311461012957806395d89b4114610151578063a9059cbb14610159578063dd62ed3e1461016c575f5ffd5b806306fdde031461009f578063095ea7b3146100bd57806318160ddd146100e057806323b872dd146100f2578063313ce56714610105575b5f5ffd5b6100a76101a4565b6040516100b491906105b6565b60405180910390f35b6100d06100cb366004610606565b610234565b60405190151581526020016100b4565b6002545b6040519081526020016100b4565b6100d061010036600461062e565b61024d565b604051601281526020016100b4565b610127610122366004610606565b610270565b005b6100e4610137366004610668565b6001600160a01b03165f9081526020819052604090205490565b6100a761027e565b6100d0610167366004610606565b61028d565b6100e461017a366004610688565b6001600160a01b039182165f90815260016020908152604080832093909416825291909152205490565b6060600380546101b3906106b9565b80601f01602080910402602001604051908101604052809291908181526020018280546101df906106b9565b801561022a5780601f106102015761010080835404028352916020019161022a565b820191905f5260205f20905b81548152906001019060200180831161020d57829003601f168201915b5050505050905090565b5f3361024181858561029a565b60019150505b92915050565b5f3361025a8582856102ac565b61026585858561032d565b506001949350505050565b61027a828261038a565b5050565b6060600480546101b3906106b9565b5f3361024181858561032d565b6102a783838360016103be565b505050565b6001600160a01b038381165f908152600160209081526040808320938616835292905220545f19811015610327578181101561031957604051637dc7a0d960e11b81526001600160a01b038416600482015260248101829052604481018390526064015b60405180910390fd5b61032784848484035f6103be565b50505050565b6001600160a01b03831661035657604051634b637e8f60e11b81525f6004820152602401610310565b6001600160a01b03821661037f5760405163ec442f0560e01b81525f6004820152602401610310565b6102a7838383610490565b6001600160a01b0382166103b35760405163ec442f0560e01b81525f6004820152602401610310565b61027a5f8383610490565b6001600160a01b0384166103e75760405163e602df0560e01b81525f6004820152602401610310565b6001600160a01b03831661041057604051634a1406b160e11b81525f6004820152602401610310565b6001600160a01b038085165f908152600160209081526040808320938716835292905220829055801561032757826001600160a01b0316846001600160a01b03167f8c5be1e5ebec7d5bd14f71427d1e84f3dd0314c0f7b2291e5b200ac8c7c3b9258460405161048291815260200190565b60405180910390a350505050565b6001600160a01b0383166104ba578060025f8282546104af91906106f1565b9091555061052a9050565b6001600160a01b0383165f908152602081905260409020548181101561050c5760405163391434e360e21b81526001600160a01b03851660048201526024810182905260448101839052606401610310565b6001600160a01b0384165f9081526020819052604090209082900390555b6001600160a01b03821661054657600280548290039055610564565b6001600160a01b0382165f9081526020819052604090208054820190555b816001600160a01b0316836001600160a01b03167fddf252ad1be2c89b69c2b068fc378daa952ba7f163c4a11628f55a4df523b3ef836040516105a991815260200190565b60405180910390a3505050565b602081525f82518060208401528060208501604085015e5f604082850101526040601f19601f83011684010191505092915050565b80356001600160a01b0381168114610601575f5ffd5b919050565b5f5f60408385031215610617575f5ffd5b610620836105eb565b946020939093013593505050565b5f5f5f60608486031215610640575f5ffd5b610649846105eb565b9250610657602085016105eb565b929592945050506040919091013590565b5f60208284031215610678575f5ffd5b610681826105eb565b9392505050565b5f5f60408385031215610699575f5ffd5b6106a2836105eb565b91506106b0602084016105eb565b90509250929050565b600181811c908216806106cd57607f821691505b6020821081036106eb57634e487b7160e01b5f52602260045260245ffd5b50919050565b8082018082111561024757634e487b7160e01b5f52601160045260245ffdfea2646970667358221220d0c7028d472e71eaced59ad1a4e50b75046a408a4b114ee48fcba176bf1ea1c964736f6c634300081c0033","linkReferences":{}},"methodIdentifiers":{"airdrop()":"3884d635","airdrop_amount()":"0b32300c","zkl()":"8f059e95"},"id":22}