{"abi":[{"type":"constructor","inputs":[{"name":"initialOwner","type":"address","internalType":"address"}],"stateMutability":"nonpayable"},{"type":"function","name":"approve","inputs":[{"name":"to","type":"address","internalType":"address"},{"name":"tokenId","type":"uint256","internalType":"uint256"}],"outputs":[],"stateMutability":"nonpayable"},{"type":"function","name":"balanceOf","inputs":[{"name":"owner","type":"address","internalType":"address"}],"outputs":[{"name":"","type":"uint256","internalType":"uint256"}],"stateMutability":"view"},{"type":"function","name":"claimNFT","inputs":[],"outputs":[{"name":"","type":"uint256","internalType":"uint256"}],"stateMutability":"nonpayable"},{"type":"function","name":"getApproved","inputs":[{"name":"tokenId","type":"uint256","internalType":"uint256"}],"outputs":[{"name":"","type":"address","internalType":"address"}],"stateMutability":"view"},{"type":"function","name":"isApprovedForAll","inputs":[{"name":"owner","type":"address","internalType":"address"},{"name":"operator","type":"address","internalType":"address"}],"outputs":[{"name":"","type":"bool","internalType":"bool"}],"stateMutability":"view"},{"type":"function","name":"name","inputs":[],"outputs":[{"name":"","type":"string","internalType":"string"}],"stateMutability":"view"},{"type":"function","name":"owner","inputs":[],"outputs":[{"name":"","type":"address","internalType":"address"}],"stateMutability":"view"},{"type":"function","name":"ownerOf","inputs":[{"name":"tokenId","type":"uint256","internalType":"uint256"}],"outputs":[{"name":"","type":"address","internalType":"address"}],"stateMutability":"view"},{"type":"function","name":"renounceOwnership","inputs":[],"outputs":[],"stateMutability":"nonpayable"},{"type":"function","name":"safeMint","inputs":[{"name":"to","type":"address","internalType":"address"}],"outputs":[{"name":"","type":"uint256","internalType":"uint256"}],"stateMutability":"nonpayable"},{"type":"function","name":"safeTransferFrom","inputs":[{"name":"from","type":"address","internalType":"address"},{"name":"to","type":"address","internalType":"address"},{"name":"tokenId","type":"uint256","internalType":"uint256"}],"outputs":[],"stateMutability":"nonpayable"},{"type":"function","name":"safeTransferFrom","inputs":[{"name":"from","type":"address","internalType":"address"},{"name":"to","type":"address","internalType":"address"},{"name":"tokenId","type":"uint256","internalType":"uint256"},{"name":"data","type":"bytes","internalType":"bytes"}],"outputs":[],"stateMutability":"nonpayable"},{"type":"function","name":"setApprovalForAll","inputs":[{"name":"operator","type":"address","internalType":"address"},{"name":"approved","type":"bool","internalType":"bool"}],"outputs":[],"stateMutability":"nonpayable"},{"type":"function","name":"supportsInterface","inputs":[{"name":"interfaceId","type":"bytes4","internalType":"bytes4"}],"outputs":[{"name":"","type":"bool","internalType":"bool"}],"stateMutability":"view"},{"type":"function","name":"symbol","inputs":[],"outputs":[{"name":"","type":"string","internalType":"string"}],"stateMutability":"view"},{"type":"function","name":"tokenURI","inputs":[{"name":"tokenId","type":"uint256","internalType":"uint256"}],"outputs":[{"name":"","type":"string","internalType":"string"}],"stateMutability":"view"},{"type":"function","name":"transferFrom","inputs":[{"name":"from","type":"address","internalType":"address"},{"name":"to","type":"address","internalType":"address"},{"name":"tokenId","type":"uint256","internalType":"uint256"}],"outputs":[],"stateMutability":"nonpayable"},{"type":"function","name":"transferOwnership","inputs":[{"name":"newOwner","type":"address","internalType":"address"}],"outputs":[],"stateMutability":"nonpayable"},{"type":"event","name":"Approval","inputs":[{"name":"owner","type":"address","indexed":true,"internalType":"address"},{"name":"approved","type":"address","indexed":true,"internalType":"address"},{"name":"tokenId","type":"uint256","indexed":true,"internalType":"uint256"}],"anonymous":false},{"type":"event","name":"ApprovalForAll","inputs":[{"name":"owner","type":"address","indexed":true,"internalType":"address"},{"name":"operator","type":"address","indexed":true,"internalType":"address"},{"name":"approved","type":"bool","indexed":false,"internalType":"bool"}],"anonymous":false},{"type":"event","name":"OwnershipTransferred","inputs":[{"name":"previousOwner","type":"address","indexed":true,"internalType":"address"},{"name":"newOwner","type":"address","indexed":true,"internalType":"address"}],"anonymous":false},{"type":"event","name":"Transfer","inputs":[{"name":"from","type":"address","indexed":true,"internalType":"address"},{"name":"to","type":"address","indexed":true,"internalType":"address"},{"name":"tokenId","type":"uint256","indexed":true,"internalType":"uint256"}],"anonymous":false},{"type":"error","name":"ERC721IncorrectOwner","inputs":[{"name":"sender","type":"address","internalType":"address"},{"name":"tokenId","type":"uint256","internalType":"uint256"},{"name":"owner","type":"address","internalType":"address"}]},{"type":"error","name":"ERC721InsufficientApproval","inputs":[{"name":"operator","type":"address","internalType":"address"},{"name":"tokenId","type":"uint256","internalType":"uint256"}]},{"type":"error","name":"ERC721InvalidApprover","inputs":[{"name":"approver","type":"address","internalType":"address"}]},{"type":"error","name":"ERC721InvalidOperator","inputs":[{"name":"operator","type":"address","internalType":"address"}]},{"type":"error","name":"ERC721InvalidOwner","inputs":[{"name":"owner","type":"address","internalType":"address"}]},{"type":"error","name":"ERC721InvalidReceiver","inputs":[{"name":"receiver","type":"address","internalType":"address"}]},{"type":"error","name":"ERC721InvalidSender","inputs":[{"name":"sender","type":"address","internalType":"address"}]},{"type":"error","name":"ERC721NonexistentToken","inputs":[{"name":"tokenId","type":"uint256","internalType":"uint256"}]},{"type":"error","name":"OwnableInvalidOwner","inputs":[{"name":"owner","type":"address","internalType":"address"}]},{"type":"error","name":"OwnableUnauthorizedAccount","inputs":[{"name":"account","type":"address","internalType":"address"}]}],"bytecode":{"object":"0x608060405234801561000f575f5ffd5b506040516113b83803806113b883398101604081905261002e91610105565b60408051808201825260038082526213919560ea1b602080840182905284518086019095529184529083015282915f61006783826101ca565b50600161007482826101ca565b5050506001600160a01b0381166100a457604051631e4fbdf760e01b81525f600482015260240160405180910390fd5b6100ad816100b4565b5050610284565b600680546001600160a01b038381166001600160a01b0319831681179093556040519116919082907f8be0079c531659141344cd1fd0a4f28419497f9722a3daafe3b4186f6b6457e0905f90a35050565b5f60208284031215610115575f5ffd5b81516001600160a01b038116811461012b575f5ffd5b9392505050565b634e487b7160e01b5f52604160045260245ffd5b600181811c9082168061015a57607f821691505b60208210810361017857634e487b7160e01b5f52602260045260245ffd5b50919050565b601f8211156101c557805f5260205f20601f840160051c810160208510156101a35750805b601f840160051c820191505b818110156101c2575f81556001016101af565b50505b505050565b81516001600160401b038111156101e3576101e3610132565b6101f7816101f18454610146565b8461017e565b6020601f821160018114610229575f83156102125750848201515b5f19600385901b1c1916600184901b1784556101c2565b5f84815260208120601f198516915b828110156102585787850151825560209485019460019092019101610238565b508482101561027557868401515f19600387901b60f8161c191681555b50505050600190811b01905550565b611127806102915f395ff3fe608060405234801561000f575f5ffd5b5060043610610111575f3560e01c806370a082311161009e578063a22cb4651161006e578063a22cb46514610228578063b88d4fde1461023b578063c87b56dd1461024e578063e985e9c514610261578063f2fde38b14610274575f5ffd5b806370a08231146101f4578063715018a6146102075780638da5cb5b1461020f57806395d89b4114610220575f5ffd5b806323b872dd116100e457806323b872dd1461019257806340d097c3146101a557806342842e0e146101c65780636352211e146101d9578063672756ad146101ec575f5ffd5b806301ffc9a71461011557806306fdde031461013d578063081812fc14610152578063095ea7b31461017d575b5f5ffd5b610128610123366004610db5565b610287565b60405190151581526020015b60405180910390f35b6101456102d8565b6040516101349190610dfe565b610165610160366004610e10565b610367565b6040516001600160a01b039091168152602001610134565b61019061018b366004610e3d565b61038e565b005b6101906101a0366004610e65565b61039d565b6101b86101b3366004610e9f565b61042b565b604051908152602001610134565b6101906101d4366004610e65565b61045c565b6101656101e7366004610e10565b61047b565b6101b8610485565b6101b8610202366004610e9f565b6104fc565b610190610541565b6006546001600160a01b0316610165565b610145610554565b610190610236366004610eb8565b610563565b610190610249366004610f05565b61056e565b61014561025c366004610e10565b610586565b61012861026f366004610fe2565b6105f7565b610190610282366004610e9f565b610624565b5f6001600160e01b031982166380ac58cd60e01b14806102b757506001600160e01b03198216635b5e139f60e01b145b806102d257506301ffc9a760e01b6001600160e01b03198316145b92915050565b60605f80546102e690611013565b80601f016020809104026020016040519081016040528092919081815260200182805461031290611013565b801561035d5780601f106103345761010080835404028352916020019161035d565b820191905f5260205f20905b81548152906001019060200180831161034057829003601f168201915b5050505050905090565b5f61037182610661565b505f828152600460205260409020546001600160a01b03166102d2565b610399828233610699565b5050565b6001600160a01b0382166103cb57604051633250574960e11b81525f60048201526024015b60405180910390fd5b5f6103d78383336106a6565b9050836001600160a01b0316816001600160a01b031614610425576040516364283d7b60e01b81526001600160a01b03808616600483015260248201849052821660448201526064016103c2565b50505050565b5f610434610798565b600780545f91826104448361104b565b91905055905061045483826107c5565b90505b919050565b61047683838360405180602001604052805f81525061056e565b505050565b5f6102d282610661565b5f61048f336104fc565b156104dc5760405162461bcd60e51b815260206004820152601760248201527f596f7520616c7265616479206861766520616e204e465400000000000000000060448201526064016103c2565b600780545f91826104ec8361104b565b91905055905061045733826107c5565b5f6001600160a01b038216610526576040516322718ad960e21b81525f60048201526024016103c2565b506001600160a01b03165f9081526003602052604090205490565b610549610798565b6105525f6107de565b565b6060600180546102e690611013565b61039933838361082f565b61057984848461039d565b61042533858585856108cd565b606061059182610661565b505f6105a760408051602081019091525f815290565b90505f8151116105c55760405180602001604052805f8152506105f0565b806105cf846109f5565b6040516020016105e0929190611086565b6040516020818303038152906040525b9392505050565b6001600160a01b039182165f90815260056020908152604080832093909416825291909152205460ff1690565b61062c610798565b6001600160a01b03811661065557604051631e4fbdf760e01b81525f60048201526024016103c2565b61065e816107de565b50565b5f818152600260205260408120546001600160a01b03168061045457604051637e27328960e01b8152600481018490526024016103c2565b6104768383836001610a85565b5f828152600260205260408120546001600160a01b03908116908316156106d2576106d2818486610b89565b6001600160a01b0381161561070c576106ed5f855f5f610a85565b6001600160a01b0381165f90815260036020526040902080545f190190555b6001600160a01b0385161561073a576001600160a01b0385165f908152600360205260409020805460010190555b5f8481526002602052604080822080546001600160a01b0319166001600160a01b0389811691821790925591518793918516917fddf252ad1be2c89b69c2b068fc378daa952ba7f163c4a11628f55a4df523b3ef91a4949350505050565b6006546001600160a01b031633146105525760405163118cdaa760e01b81523360048201526024016103c2565b610399828260405180602001604052805f815250610bed565b600680546001600160a01b038381166001600160a01b0319831681179093556040519116919082907f8be0079c531659141344cd1fd0a4f28419497f9722a3daafe3b4186f6b6457e0905f90a35050565b6001600160a01b03821661086157604051630b61174360e31b81526001600160a01b03831660048201526024016103c2565b6001600160a01b038381165f81815260056020908152604080832094871680845294825291829020805460ff191686151590811790915591519182527f17307eab39ab6107e8899845ad3d59bd9653f200f220920489ca2b5937696c31910160405180910390a3505050565b6001600160a01b0383163b156109ee57604051630a85bd0160e11b81526001600160a01b0384169063150b7a029061090f90889088908790879060040161109a565b6020604051808303815f875af1925050508015610949575060408051601f3d908101601f19168201909252610946918101906110d6565b60015b6109b0573d808015610976576040519150601f19603f3d011682016040523d82523d5f602084013e61097b565b606091505b5080515f036109a857604051633250574960e11b81526001600160a01b03851660048201526024016103c2565b805181602001fd5b6001600160e01b03198116630a85bd0160e11b146109ec57604051633250574960e11b81526001600160a01b03851660048201526024016103c2565b505b5050505050565b60605f610a0183610c04565b60010190505f8167ffffffffffffffff811115610a2057610a20610ef1565b6040519080825280601f01601f191660200182016040528015610a4a576020820181803683370190505b5090508181016020015b5f19016f181899199a1a9b1b9c1cb0b131b232b360811b600a86061a8153600a8504945084610a5457509392505050565b8080610a9957506001600160a01b03821615155b15610b5a575f610aa884610661565b90506001600160a01b03831615801590610ad45750826001600160a01b0316816001600160a01b031614155b8015610ae75750610ae581846105f7565b155b15610b105760405163a9fbf51f60e01b81526001600160a01b03841660048201526024016103c2565b8115610b585783856001600160a01b0316826001600160a01b03167f8c5be1e5ebec7d5bd14f71427d1e84f3dd0314c0f7b2291e5b200ac8c7c3b92560405160405180910390a45b505b50505f90815260046020526040902080546001600160a01b0319166001600160a01b0392909216919091179055565b610b94838383610cdb565b610476576001600160a01b038316610bc257604051637e27328960e01b8152600481018290526024016103c2565b60405163177e802f60e01b81526001600160a01b0383166004820152602481018290526044016103c2565b610bf78383610d3f565b610476335f8585856108cd565b5f8072184f03e93ff9f4daa797ed6e38ed64bf6a1f0160401b8310610c425772184f03e93ff9f4daa797ed6e38ed64bf6a1f0160401b830492506040015b6d04ee2d6d415b85acef81000000008310610c6e576d04ee2d6d415b85acef8100000000830492506020015b662386f26fc100008310610c8c57662386f26fc10000830492506010015b6305f5e1008310610ca4576305f5e100830492506008015b6127108310610cb857612710830492506004015b60648310610cca576064830492506002015b600a83106104545760010192915050565b5f6001600160a01b03831615801590610d375750826001600160a01b0316846001600160a01b03161480610d145750610d1484846105f7565b80610d3757505f828152600460205260409020546001600160a01b038481169116145b949350505050565b6001600160a01b038216610d6857604051633250574960e11b81525f60048201526024016103c2565b5f610d7483835f6106a6565b90506001600160a01b03811615610476576040516339e3563760e11b81525f60048201526024016103c2565b6001600160e01b03198116811461065e575f5ffd5b5f60208284031215610dc5575f5ffd5b81356105f081610da0565b5f81518084528060208401602086015e5f602082860101526020601f19601f83011685010191505092915050565b602081525f6105f06020830184610dd0565b5f60208284031215610e20575f5ffd5b5035919050565b80356001600160a01b0381168114610457575f5ffd5b5f5f60408385031215610e4e575f5ffd5b610e5783610e27565b946020939093013593505050565b5f5f5f60608486031215610e77575f5ffd5b610e8084610e27565b9250610e8e60208501610e27565b929592945050506040919091013590565b5f60208284031215610eaf575f5ffd5b6105f082610e27565b5f5f60408385031215610ec9575f5ffd5b610ed283610e27565b915060208301358015158114610ee6575f5ffd5b809150509250929050565b634e487b7160e01b5f52604160045260245ffd5b5f5f5f5f60808587031215610f18575f5ffd5b610f2185610e27565b9350610f2f60208601610e27565b925060408501359150606085013567ffffffffffffffff811115610f51575f5ffd5b8501601f81018713610f61575f5ffd5b803567ffffffffffffffff811115610f7b57610f7b610ef1565b604051601f8201601f19908116603f0116810167ffffffffffffffff81118282101715610faa57610faa610ef1565b604052818152828201602001891015610fc1575f5ffd5b816020840160208301375f6020838301015280935050505092959194509250565b5f5f60408385031215610ff3575f5ffd5b610ffc83610e27565b915061100a60208401610e27565b90509250929050565b600181811c9082168061102757607f821691505b60208210810361104557634e487b7160e01b5f52602260045260245ffd5b50919050565b5f6001820161106857634e487b7160e01b5f52601160045260245ffd5b5060010190565b5f81518060208401855e5f93019283525090919050565b5f610d37611094838661106f565b8461106f565b6001600160a01b03858116825284166020820152604081018390526080606082018190525f906110cc90830184610dd0565b9695505050505050565b5f602082840312156110e6575f5ffd5b81516105f081610da056fea26469706673582212205fd81e09cc8ce79d26b7e38e25ea80979b08f0a2ee1d107e19c98c499f748ce264736f6c634300081c0033","linkReferences":{}},"methodIdentifiers":{"approve(address,uint256)":"095ea7b3","balanceOf(address)":"70a08231","claimNFT()":"672756ad","getApproved(uint256)":"081812fc","isApprovedForAll(address,address)":"e985e9c5","name()":"06fdde03","owner()":"8da5cb5b","ownerOf(uint256)":"6352211e","renounceOwnership()":"715018a6","safeMint(address)":"40d097c3","safeTransferFrom(address,address,uint256)":"42842e0e","safeTransferFrom(address,address,uint256,bytes)":"b88d4fde","setApprovalForAll(address,bool)":"a22cb465","supportsInterface(bytes4)":"01ffc9a7","symbol()":"95d89b41","tokenURI(uint256)":"c87b56dd","transferFrom(address,address,uint256)":"23b872dd","transferOwnership(address)":"f2fde38b"},"id":31}