{"abi":[{"type":"constructor","inputs":[{"name":"_usdt","type":"address","internalType":"address"},{"name":"_zkl","type":"address","internalType":"address"}],"stateMutability":"nonpayable"},{"type":"function","name":"TOKEN_PRICE_USDT","inputs":[],"outputs":[{"name":"","type":"uint256","internalType":"uint256"}],"stateMutability":"view"},{"type":"function","name":"USDT","inputs":[],"outputs":[{"name":"","type":"address","internalType":"contract IERC20"}],"stateMutability":"view"},{"type":"function","name":"USDT_DECIMALS","inputs":[],"outputs":[{"name":"","type":"uint256","internalType":"uint256"}],"stateMutability":"view"},{"type":"function","name":"ZKL","inputs":[],"outputs":[{"name":"","type":"address","internalType":"contract IZKL"}],"stateMutability":"view"},{"type":"function","name":"ZKL_DECIMALS","inputs":[],"outputs":[{"name":"","type":"uint256","internalType":"uint256"}],"stateMutability":"view"},{"type":"function","name":"buyWithUsdt","inputs":[{"name":"usdtAmount","type":"uint256","internalType":"uint256"}],"outputs":[],"stateMutability":"nonpayable"},{"type":"event","name":"TokensBought","inputs":[{"name":"buyer","type":"address","indexed":true,"internalType":"address"},{"name":"usdtSpent","type":"uint256","indexed":false,"internalType":"uint256"},{"name":"tokensMinted","type":"uint256","indexed":false,"internalType":"uint256"}],"anonymous":false}],"bytecode":{"object":"0x60c060405234801561000f575f5ffd5b5060405161057938038061057983398101604081905261002e91610060565b6001600160a01b039182166080521660a052610091565b80516001600160a01b038116811461005b575f5ffd5b919050565b5f5f60408385031215610071575f5ffd5b61007a83610045565b915061008860208401610045565b90509250929050565b60805160a0516104bb6100be5f395f81816084015261027001525f818160c3015261016e01526104bb5ff3fe608060405234801561000f575f5ffd5b5060043610610060575f3560e01c80638225547c14610064578063c31cbfac1461007f578063c54e44eb146100be578063d707dfd1146100e5578063ef2cfd1a14610064578063f8736672146100fa575b5f5ffd5b61006c600681565b6040519081526020015b60405180910390f35b6100a67f000000000000000000000000000000000000000000000000000000000000000081565b6040516001600160a01b039091168152602001610076565b6100a67f000000000000000000000000000000000000000000000000000000000000000081565b6100f86100f336600461030e565b610102565b005b61006c603281565b5f811161014c5760405162461bcd60e51b8152602060048201526013602482015272125b9d985b1a59081554d11508185b5bdd5b9d606a1b60448201526064015b60405180910390fd5b6040516323b872dd60e01b8152336004820152306024820152604481018290527f00000000000000000000000000000000000000000000000000000000000000006001600160a01b0316906323b872dd906064016020604051808303815f875af11580156101bc573d5f5f3e3d5ffd5b505050506040513d601f19601f820116820180604052508101906101e09190610325565b6102235760405162461bcd60e51b81526020600482015260146024820152731554d115081d1c985b9cd9995c8819985a5b195960621b6044820152606401610143565b5f60326102326006600a610444565b61023c908461044f565b6102469190610466565b61025190600261044f565b6040516340c10f1960e01b8152336004820152602481018290529091507f00000000000000000000000000000000000000000000000000000000000000006001600160a01b0316906340c10f19906044015f604051808303815f87803b1580156102b9575f5ffd5b505af11580156102cb573d5f5f3e3d5ffd5b505060408051858152602081018590523393507f8442948036198f1146d3a63c3db355d7e0295c2cc5676c755990445da4fdc1c992500160405180910390a25050565b5f6020828403121561031e575f5ffd5b5035919050565b5f60208284031215610335575f5ffd5b81518015158114610344575f5ffd5b9392505050565b634e487b7160e01b5f52601160045260245ffd5b6001815b600184111561039a5780850481111561037e5761037e61034b565b600184161561038c57908102905b60019390931c928002610363565b935093915050565b5f826103b05750600161043e565b816103bc57505f61043e565b81600181146103d257600281146103dc576103f8565b600191505061043e565b60ff8411156103ed576103ed61034b565b50506001821b61043e565b5060208310610133831016604e8410600b841016171561041b575081810a61043e565b6104275f19848461035f565b805f190482111561043a5761043a61034b565b0290505b92915050565b5f61034483836103a2565b808202811582820484141761043e5761043e61034b565b5f8261048057634e487b7160e01b5f52601260045260245ffd5b50049056fea264697066735822122031808bc08e7233f02e67fd89d5bdc6059d208c51839edbbcf8e642881637560764736f6c634300081c0033","linkReferences":{}},"methodIdentifiers":{"TOKEN_PRICE_USDT()":"f8736672","USDT()":"c54e44eb","USDT_DECIMALS()":"ef2cfd1a","ZKL()":"c31cbfac","ZKL_DECIMALS()":"8225547c","buyWithUsdt(uint256)":"d707dfd1"},"id":23}